{
  "address": "0xE5f35DDcBF8A333F90A7462625074e41271Ae4D9",
  "abi": [
    {
      "inputs": [
        {
          "internalType": "address",
          "name": "vrfCoordinatorV2Plus",
          "type": "address"
        },
        {
          "internalType": "uint256",
          "name": "entranceFee",
          "type": "uint256"
        },
        {
          "internalType": "bytes32",
          "name": "gasLane",
          "type": "bytes32"
        },
        {
          "internalType": "uint256",
          "name": "subscriptionId",
          "type": "uint256"
        },
        {
          "internalType": "uint32",
          "name": "callbackGasLimit",
          "type": "uint32"
        },
        {
          "internalType": "uint256",
          "name": "interval",
          "type": "uint256"
        }
      ],
      "stateMutability": "nonpayable",
      "type": "constructor"
    },
    {
      "inputs": [
        {
          "internalType": "address",
          "name": "have",
          "type": "address"
        },
        {
          "internalType": "address",
          "name": "want",
          "type": "address"
        }
      ],
      "name": "OnlyCoordinatorCanFulfill",
      "type": "error"
    },
    {
      "inputs": [
        {
          "internalType": "address",
          "name": "have",
          "type": "address"
        },
        {
          "internalType": "address",
          "name": "owner",
          "type": "address"
        },
        {
          "internalType": "address",
          "name": "coordinator",
          "type": "address"
        }
      ],
      "name": "OnlyOwnerOrCoordinator",
      "type": "error"
    },
    {
      "inputs": [],
      "name": "Raffle__NotEnoughETHEntered",
      "type": "error"
    },
    {
      "inputs": [],
      "name": "Raffle__NotOpen",
      "type": "error"
    },
    {
      "inputs": [],
      "name": "Raffle__TransferFailed",
      "type": "error"
    },
    {
      "inputs": [
        {
          "internalType": "uint256",
          "name": "currentBalance",
          "type": "uint256"
        },
        {
          "internalType": "uint256",
          "name": "numPlayers",
          "type": "uint256"
        },
        {
          "internalType": "uint256",
          "name": "raffleState",
          "type": "uint256"
        }
      ],
      "name": "Raffle__UpkeepNotNeeded",
      "type": "error"
    },
    {
      "inputs": [],
      "name": "ZeroAddress",
      "type": "error"
    },
    {
      "anonymous": false,
      "inputs": [
        {
          "indexed": false,
          "internalType": "address",
          "name": "vrfCoordinator",
          "type": "address"
        }
      ],
      "name": "CoordinatorSet",
      "type": "event"
    },
    {
      "anonymous": false,
      "inputs": [
        {
          "indexed": true,
          "internalType": "address",
          "name": "from",
          "type": "address"
        },
        {
          "indexed": true,
          "internalType": "address",
          "name": "to",
          "type": "address"
        }
      ],
      "name": "OwnershipTransferRequested",
      "type": "event"
    },
    {
      "anonymous": false,
      "inputs": [
        {
          "indexed": true,
          "internalType": "address",
          "name": "from",
          "type": "address"
        },
        {
          "indexed": true,
          "internalType": "address",
          "name": "to",
          "type": "address"
        }
      ],
      "name": "OwnershipTransferred",
      "type": "event"
    },
    {
      "anonymous": false,
      "inputs": [
        {
          "indexed": true,
          "internalType": "address",
          "name": "player",
          "type": "address"
        }
      ],
      "name": "RaffleEnter",
      "type": "event"
    },
    {
      "anonymous": false,
      "inputs": [
        {
          "indexed": true,
          "internalType": "uint256",
          "name": "requestId",
          "type": "uint256"
        }
      ],
      "name": "RequestedRaffleWinner",
      "type": "event"
    },
    {
      "anonymous": false,
      "inputs": [
        {
          "indexed": true,
          "internalType": "address",
          "name": "winner",
          "type": "address"
        }
      ],
      "name": "WinnerPicked",
      "type": "event"
    },
    {
      "inputs": [],
      "name": "acceptOwnership",
      "outputs": [],
      "stateMutability": "nonpayable",
      "type": "function"
    },
    {
      "inputs": [
        {
          "internalType": "bytes",
          "name": "",
          "type": "bytes"
        }
      ],
      "name": "checkUpkeep",
      "outputs": [
        {
          "internalType": "bool",
          "name": "upkeepNeeded",
          "type": "bool"
        },
        {
          "internalType": "bytes",
          "name": "",
          "type": "bytes"
        }
      ],
      "stateMutability": "view",
      "type": "function"
    },
    {
      "inputs": [],
      "name": "enterRaffle",
      "outputs": [],
      "stateMutability": "payable",
      "type": "function"
    },
    {
      "inputs": [],
      "name": "getEntranceFee",
      "outputs": [
        {
          "internalType": "uint256",
          "name": "",
          "type": "uint256"
        }
      ],
      "stateMutability": "view",
      "type": "function"
    },
    {
      "inputs": [],
      "name": "getInterval",
      "outputs": [
        {
          "internalType": "uint256",
          "name": "",
          "type": "uint256"
        }
      ],
      "stateMutability": "view",
      "type": "function"
    },
    {
      "inputs": [],
      "name": "getLastTimeStamp",
      "outputs": [
        {
          "internalType": "uint256",
          "name": "",
          "type": "uint256"
        }
      ],
      "stateMutability": "view",
      "type": "function"
    },
    {
      "inputs": [],
      "name": "getNumWords",
      "outputs": [
        {
          "internalType": "uint256",
          "name": "",
          "type": "uint256"
        }
      ],
      "stateMutability": "pure",
      "type": "function"
    },
    {
      "inputs": [],
      "name": "getNumberOfPlayers",
      "outputs": [
        {
          "internalType": "uint256",
          "name": "",
          "type": "uint256"
        }
      ],
      "stateMutability": "view",
      "type": "function"
    },
    {
      "inputs": [
        {
          "internalType": "uint256",
          "name": "index",
          "type": "uint256"
        }
      ],
      "name": "getPlayer",
      "outputs": [
        {
          "internalType": "address",
          "name": "",
          "type": "address"
        }
      ],
      "stateMutability": "view",
      "type": "function"
    },
    {
      "inputs": [],
      "name": "getRaffleState",
      "outputs": [
        {
          "internalType": "enum Raffle.RaffleState",
          "name": "",
          "type": "uint8"
        }
      ],
      "stateMutability": "view",
      "type": "function"
    },
    {
      "inputs": [],
      "name": "getRecentWinner",
      "outputs": [
        {
          "internalType": "address",
          "name": "",
          "type": "address"
        }
      ],
      "stateMutability": "view",
      "type": "function"
    },
    {
      "inputs": [],
      "name": "owner",
      "outputs": [
        {
          "internalType": "address",
          "name": "",
          "type": "address"
        }
      ],
      "stateMutability": "view",
      "type": "function"
    },
    {
      "inputs": [
        {
          "internalType": "bytes",
          "name": "",
          "type": "bytes"
        }
      ],
      "name": "performUpkeep",
      "outputs": [],
      "stateMutability": "nonpayable",
      "type": "function"
    },
    {
      "inputs": [
        {
          "internalType": "uint256",
          "name": "requestId",
          "type": "uint256"
        },
        {
          "internalType": "uint256[]",
          "name": "randomWords",
          "type": "uint256[]"
        }
      ],
      "name": "rawFulfillRandomWords",
      "outputs": [],
      "stateMutability": "nonpayable",
      "type": "function"
    },
    {
      "inputs": [],
      "name": "s_vrfCoordinator",
      "outputs": [
        {
          "internalType": "contract IVRFCoordinatorV2Plus",
          "name": "",
          "type": "address"
        }
      ],
      "stateMutability": "view",
      "type": "function"
    },
    {
      "inputs": [
        {
          "internalType": "address",
          "name": "_vrfCoordinator",
          "type": "address"
        }
      ],
      "name": "setCoordinator",
      "outputs": [],
      "stateMutability": "nonpayable",
      "type": "function"
    },
    {
      "inputs": [
        {
          "internalType": "address",
          "name": "to",
          "type": "address"
        }
      ],
      "name": "transferOwnership",
      "outputs": [],
      "stateMutability": "nonpayable",
      "type": "function"
    }
  ],
  "transactionHash": "0xbd8755b96c0ae2da175178dc33e52b264559d4db61f00395ad0dd02f9ca8b338",
  "args": [
    "0x9DdfaCa8183c41ad55329BdeeD9F6A8d53168B1B",
    "10000000000000000",
    "0x787d74caea10b2b357790d5b5247c2f63d1d91572a9846f780606e4d953677ae",
    "48187539322531669621812936502648729785259731175578218918513134717429769376528",
    "100000",
    "30"
  ],
  "numDeployments": 1,
  "solcInputHash": "bfa1dcdbb4d10808a814ab3c2f045014",
  "bytecode": "0x61012060405234801561001157600080fd5b50604051611258380380611258833981016040819052610030916101da565b8533806000816100875760405162461bcd60e51b815260206004820152601860248201527f43616e6e6f7420736574206f776e657220746f207a65726f000000000000000060448201526064015b60405180910390fd5b600080546001600160a01b0319166001600160a01b03848116919091179091558116156100b7576100b781610131565b5050506001600160a01b0381166100e15760405163d92e233d60e01b815260040160405180910390fd5b600280546001600160a01b0319166001600160a01b039290921691909117905560809490945260c09290925260e05263ffffffff16610100526004805460ff191690554260055560a05250610252565b336001600160a01b038216036101895760405162461bcd60e51b815260206004820152601760248201527f43616e6e6f74207472616e7366657220746f2073656c66000000000000000000604482015260640161007e565b600180546001600160a01b0319166001600160a01b0383811691821790925560008054604051929316917fed8889f560326eb138920d842192f0eb3dd22b4f139c87a2c57538e05bae12789190a350565b60008060008060008060c087890312156101f357600080fd5b86516001600160a01b038116811461020a57600080fd5b6020880151604089015160608a015160808b01519399509197509550935063ffffffff8116811461023a57600080fd5b60a09790970151959894975092959194919391925050565b60805160a05160c05160e05161010051610fb46102a460003960006105510152600061051c015260006104f90152600081816102850152610668015260008181610112015261038a0152610fb46000f3fe6080604052600436106100fe5760003560e01c806379ba5097116100955780639eccacf6116100645780639eccacf6146102a9578063c1c244e8146102c9578063e55ae4e8146102de578063f2fde38b146102fe578063fd6673f51461031e57600080fd5b806379ba5097146102235780638da5cb5b146102385780638ea981171461025657806391ad27b41461027657600080fd5b80634585e33b116100d15780634585e33b1461018f578063473f1ddc146101af57806353a2c19a146101e15780636e04ff0d146101f557600080fd5b806309bc33a714610103578063115cbaf5146101455780631fe543e3146101655780632cfcc53914610187575b600080fd5b34801561010f57600080fd5b507f00000000000000000000000000000000000000000000000000000000000000005b6040519081526020015b60405180910390f35b34801561015157600080fd5b5060045460ff1660405161013c9190610c0b565b34801561017157600080fd5b50610185610180366004610c33565b610333565b005b610185610388565b34801561019b57600080fd5b506101856101aa366004610cb4565b61046e565b3480156101bb57600080fd5b506006546001600160a01b03165b6040516001600160a01b03909116815260200161013c565b3480156101ed57600080fd5b506001610132565b34801561020157600080fd5b50610215610210366004610d3e565b610640565b60405161013c929190610e3d565b34801561022f57600080fd5b506101856106e4565b34801561024457600080fd5b506000546001600160a01b03166101c9565b34801561026257600080fd5b50610185610271366004610e60565b61078e565b34801561028257600080fd5b507f0000000000000000000000000000000000000000000000000000000000000000610132565b3480156102b557600080fd5b506002546101c9906001600160a01b031681565b3480156102d557600080fd5b50600554610132565b3480156102ea57600080fd5b506101c96102f9366004610e90565b610880565b34801561030a57600080fd5b50610185610319366004610e60565b6108b0565b34801561032a57600080fd5b50600354610132565b6002546001600160a01b031633146103785760025460405163073e64fd60e21b81523360048201526001600160a01b0390911660248201526044015b60405180910390fd5b6103838383836108c4565b505050565b7f00000000000000000000000000000000000000000000000000000000000000003410156103c95760405163bd4e069560e01b815260040160405180910390fd5b600060045460ff1660018111156103e2576103e2610bf5565b146104005760405163050955c760e21b815260040160405180910390fd5b6003805460018101825560009182527fc2575a0e9e593c00f959f8c92f12db2869c3395a3b0502d05e2516446f71f85b0180546001600160a01b0319163390811790915560405190917f0805e1d667bddb8a95f0f09880cf94f403fb596ce79928d9f29b74203ba284d491a2565b600061048860405180602001604052806000815250610640565b509050806104d75760035460045447919060ff1660018111156104ad576104ad610bf5565b604051632c2193d560e11b815260048101939093526024830191909152604482015260640161036f565b600480546001919060ff1916828002179055506002546040805160c0810182527f000000000000000000000000000000000000000000000000000000000000000081527f000000000000000000000000000000000000000000000000000000000000000060208083019190915260038284015263ffffffff7f00000000000000000000000000000000000000000000000000000000000000001660608301526001608083015282519081019092526000808352926001600160a01b031691639b1c385e919060a08201906105aa90610a0c565b8152506040518263ffffffff1660e01b81526004016105c99190610ea9565b6020604051808303816000875af11580156105e8573d6000803e3d6000fd5b505050506040513d601f19601f8201168201806040525081019061060c9190610f06565b60405190915081907fcd6e45c8998311cab7e9d4385596cac867e20a0587194b954fa3a731c93ce78b90600090a250505050565b600454600090606090829060ff16600181111561065f5761065f610bf5565b600014905060007f0000000000000000000000000000000000000000000000000000000000000000600554426106959190610f1f565b6003549110915015154715158380156106ab5750825b80156106b45750815b80156106bd5750805b604080518082019091526002815261060f60f31b6020820152909890975095505050505050565b6001546001600160a01b031633146107375760405162461bcd60e51b815260206004820152601660248201527526bab9ba10313290383937b837b9b2b21037bbb732b960511b604482015260640161036f565b60008054336001600160a01b0319808316821784556001805490911690556040516001600160a01b0390921692909183917f8be0079c531659141344cd1fd0a4f28419497f9722a3daafe3b4186f6b6457e091a350565b6000546001600160a01b031633148015906107b457506002546001600160a01b03163314155b1561080557336107cc6000546001600160a01b031690565b60025460405163061db9c160e01b81526001600160a01b039384166004820152918316602483015291909116604482015260640161036f565b6001600160a01b03811661082c5760405163d92e233d60e01b815260040160405180910390fd5b600280546001600160a01b0319166001600160a01b0383169081179091556040519081527fd1a6a14209a385a964d036e404cb5cfb71f4000cdb03c9366292430787261be69060200160405180910390a150565b60006003828154811061089557610895610f46565b6000918252602090912001546001600160a01b031692915050565b6108b8610a7d565b6108c181610ad2565b50565b600354600090838383816108da576108da610f46565b905060200201356108eb9190610f5c565b905060006003828154811061090257610902610f46565b600091825260208083209190910154600680546001600160a01b0319166001600160a01b0390921691821790556004805460ff19169055604080519384529183019182905291519192506109599160039190610b7b565b50426005556040516000906001600160a01b0383169047908381818185875af1925050503d80600081146109a9576040519150601f19603f3d011682016040523d82523d6000602084013e6109ae565b606091505b50509050806109d05760405163a1d04b3960e01b815260040160405180910390fd5b6040516001600160a01b038316907f5b690ec4a06fe979403046eaeea5b3ce38524683c3001f662c8b5a829632f7df90600090a2505050505050565b60607f92fd13387c7fe7befbc38d303d6468778fb9731bc4583f17d92989c6fcfdeaaa82604051602401610a4591511515815260200190565b60408051601f198184030181529190526020810180516001600160e01b03166001600160e01b03199093169290921790915292915050565b6000546001600160a01b03163314610ad05760405162461bcd60e51b815260206004820152601660248201527527b7363c9031b0b63630b1363290313c9037bbb732b960511b604482015260640161036f565b565b336001600160a01b03821603610b2a5760405162461bcd60e51b815260206004820152601760248201527f43616e6e6f74207472616e7366657220746f2073656c66000000000000000000604482015260640161036f565b600180546001600160a01b0319166001600160a01b0383811691821790925560008054604051929316917fed8889f560326eb138920d842192f0eb3dd22b4f139c87a2c57538e05bae12789190a350565b828054828255906000526020600020908101928215610bd0579160200282015b82811115610bd057825182546001600160a01b0319166001600160a01b03909116178255602090920191600190910190610b9b565b50610bdc929150610be0565b5090565b5b80821115610bdc5760008155600101610be1565b634e487b7160e01b600052602160045260246000fd5b6020810160028310610c2d57634e487b7160e01b600052602160045260246000fd5b91905290565b600080600060408486031215610c4857600080fd5b83359250602084013567ffffffffffffffff811115610c6657600080fd5b8401601f81018613610c7757600080fd5b803567ffffffffffffffff811115610c8e57600080fd5b8660208260051b8401011115610ca357600080fd5b939660209190910195509293505050565b60008060208385031215610cc757600080fd5b823567ffffffffffffffff811115610cde57600080fd5b8301601f81018513610cef57600080fd5b803567ffffffffffffffff811115610d0657600080fd5b856020828401011115610d1857600080fd5b6020919091019590945092505050565b634e487b7160e01b600052604160045260246000fd5b600060208284031215610d5057600080fd5b813567ffffffffffffffff811115610d6757600080fd5b8201601f81018413610d7857600080fd5b803567ffffffffffffffff811115610d9257610d92610d28565b604051601f8201601f19908116603f0116810167ffffffffffffffff81118282101715610dc157610dc1610d28565b604052818152828201602001861015610dd957600080fd5b81602084016020830137600091810160200191909152949350505050565b6000815180845260005b81811015610e1d57602081850181015186830182015201610e01565b506000602082860101526020601f19601f83011685010191505092915050565b8215158152604060208201526000610e586040830184610df7565b949350505050565b600060208284031215610e7257600080fd5b81356001600160a01b0381168114610e8957600080fd5b9392505050565b600060208284031215610ea257600080fd5b5035919050565b60208152815160208201526020820151604082015261ffff604083015116606082015263ffffffff606083015116608082015263ffffffff60808301511660a0820152600060a083015160c080840152610e5860e0840182610df7565b600060208284031215610f1857600080fd5b5051919050565b81810381811115610f4057634e487b7160e01b600052601160045260246000fd5b92915050565b634e487b7160e01b600052603260045260246000fd5b600082610f7957634e487b7160e01b600052601260045260246000fd5b50069056fea2646970667358221220ee73b56025d1eeb013c92ced088ea3f1bc91b746b04fc68a7d437d2f42c978ee64736f6c634300081c0033",
  "devdoc": {
    "author": "Hardhat & TS Course Student (Mentored by Antigravity)",
    "kind": "dev",
    "methods": {
      "checkUpkeep(bytes)": {
        "details": "This is the function that the Chainlink Keeper nodes look at      to see if they should trigger `performUpkeep`.      The following conditions must be true for upkeepNeeded to be true:      1. Time interval must have passed      2. Raffle must have at least 1 player and some ETH balance      3. Subscription must be funded with LINK      4. Raffle state must be OPEN (we shouldn't trigger if we are already calculating a winner!)"
      },
      "constructor": {
        "params": {
          "callbackGasLimit": "Gas limit for the callback fulfillRandomWords call",
          "entranceFee": "Entry fee in Wei",
          "gasLane": "Key hash (max gas price you are willing to pay for request)",
          "interval": "Time interval (in seconds) between lottery rounds",
          "subscriptionId": "Subscription ID funded with LINK for Coordinator fees",
          "vrfCoordinatorV2Plus": "Address of the Chainlink VRF V2.5 Coordinator contract on Sepolia or local mock"
        }
      },
      "performUpkeep(bytes)": {
        "details": "Requests a random number from Chainlink VRF V2.5 to draw the winner.      Automatically called by Chainlink Keeper nodes when checkUpkeep returns true."
      }
    },
    "title": "Raffle Smart Contract",
    "version": 1
  },
  "userdoc": {
    "kind": "user",
    "methods": {
      "acceptOwnership()": {
        "notice": "Allows an ownership transfer to be completed by the recipient."
      },
      "enterRaffle()": {
        "notice": "Allows a player to enter the lottery by paying the entrance fee"
      },
      "owner()": {
        "notice": "Get the current owner"
      },
      "setCoordinator(address)": {
        "notice": "Sets the VRF Coordinator addressThis method should only be callable by the coordinator or contract owner"
      },
      "transferOwnership(address)": {
        "notice": "Allows an owner to begin transferring ownership to a new address."
      }
    },
    "notice": "This contract implements a decentralized, verifiably fair lottery using Chainlink VRF V2.5         and Chainlink Automation (Keepers).",
    "version": 1
  },
  "storageLayout": {
    "storage": [
      {
        "astId": 29,
        "contract": "contracts/Raffle.sol:Raffle",
        "label": "s_owner",
        "offset": 0,
        "slot": "0",
        "type": "t_address"
      },
      {
        "astId": 31,
        "contract": "contracts/Raffle.sol:Raffle",
        "label": "s_pendingOwner",
        "offset": 0,
        "slot": "1",
        "type": "t_address"
      },
      {
        "astId": 1699,
        "contract": "contracts/Raffle.sol:Raffle",
        "label": "s_vrfCoordinator",
        "offset": 0,
        "slot": "2",
        "type": "t_contract(IVRFCoordinatorV2Plus)1848"
      },
      {
        "astId": 3451,
        "contract": "contracts/Raffle.sol:Raffle",
        "label": "s_players",
        "offset": 0,
        "slot": "3",
        "type": "t_array(t_address_payable)dyn_storage"
      },
      {
        "astId": 3454,
        "contract": "contracts/Raffle.sol:Raffle",
        "label": "s_raffleState",
        "offset": 0,
        "slot": "4",
        "type": "t_enum(RaffleState)3446"
      },
      {
        "astId": 3456,
        "contract": "contracts/Raffle.sol:Raffle",
        "label": "s_lastTimeStamp",
        "offset": 0,
        "slot": "5",
        "type": "t_uint256"
      },
      {
        "astId": 3472,
        "contract": "contracts/Raffle.sol:Raffle",
        "label": "s_recentWinner",
        "offset": 0,
        "slot": "6",
        "type": "t_address"
      }
    ],
    "types": {
      "t_address": {
        "encoding": "inplace",
        "label": "address",
        "numberOfBytes": "20"
      },
      "t_address_payable": {
        "encoding": "inplace",
        "label": "address payable",
        "numberOfBytes": "20"
      },
      "t_array(t_address_payable)dyn_storage": {
        "base": "t_address_payable",
        "encoding": "dynamic_array",
        "label": "address payable[]",
        "numberOfBytes": "32"
      },
      "t_contract(IVRFCoordinatorV2Plus)1848": {
        "encoding": "inplace",
        "label": "contract IVRFCoordinatorV2Plus",
        "numberOfBytes": "20"
      },
      "t_enum(RaffleState)3446": {
        "encoding": "inplace",
        "label": "enum Raffle.RaffleState",
        "numberOfBytes": "1"
      },
      "t_uint256": {
        "encoding": "inplace",
        "label": "uint256",
        "numberOfBytes": "32"
      }
    }
  }
}